:10000000000C0020E9040000F9040000F9040000DD
:1000100000000000000000000000000000000000E0
:10002000000000000000000000000000F9040000D3
:100030000000000000000000F90400007D3800000E
:10004000F9040000F9040000F9040000F9040000BC
:10005000F9040000F9040000F9040000F9040000AC
:10006000290E0000F9040000F9040000F904000062
:10007000F9040000F9040000F9040000F90400008C
:10008000F9040000F9040000F9040000F90400007C
:10009000F9040000F9040000F9040000F90400006C
:1000A000F9040000F9040000F9040000F90400005C
:1000B000F9040000F9040000F9040000F90400004C
:10040000FFFFFFFFFFFFFFFFFFFFFFFFFEFFFFFFFD
:1004100010B5064C2378002B07D1054B002B02D0DA
:10042000044800E000BF0123237010BD7CFEFF1FC5
:10043000000000007057000008B5084B002B03D0E7
:100440000748084900E000BF07480368002B03D0B5
:10045000064B002B00D0984708BDC04600000000A6
:100460007057000080FEFF1F78FEFF1F0000000095
:10047000164B002B00D1144B9D46402292029A1A33
:10048000924600218B460F461348144A121A03F075
:10049000D5FB0F4B002B00D098470E4B002B00D004
:1004A00098470020002104000D000D48002802D0CC
:1004B0000C4800E000BF03F09BFB2000290001F086
:1004C000F3FB03F06DFBC04600000800000C0020A9
:1004D00000000000000000007CFEFF1F2000002044
:1004E000000000000000000072B603F00DF803F0F9
:1004F00081F862B6FFF7BCFF00480047F90400002E
:10050000002934D00123002210B488422CD30124C6
:100510002407A14204D2814202D209011B01F8E75B
:10052000E400A14204D2814202D249005B00F8E714
:10053000884201D3401A1A434C08A04202D3001B40
:100540005C0822438C08A04202D3001B9C08224373
:10055000CC08A04202D3001BDC082243002803D0B1
:100560001B0901D00909E3E7101C10BC70470028E3
:1005700001D00020C04307B4024802A140180290F5
:1005800003BDC046190000000029F0D003B5FFF7F5
:10059000B9FF0EBC4243891A1847C0467047C0468F
:1005A000002B11D1002A0FD1002900D1002802D040
:1005B0000021C943081C07B4024802A14018029058
:1005C00003BDC046D9FFFFFF03B4684601B50298DA
:1005D00000F044F8019B9E4602B00CBC7047C04638
:1005E0009C460304F0B51B0C17043F0C150C1E1C95
:1005F000041C000C7E436B4347434543FB18300CFF
:100600001818874202D980235B02ED18030CED18FD
:1006100063465C434A433604360CA1180004801933
:100620004919F0BDF0B583B0161C1F1C0090019154
:1006300000F02EF8041C0D1C221C2B1C301C391C35
:10064000FFF7CEFF009A019B121A8B410899201CDC
:100650000A604B60291C03B0F0BDC046F0B583B002
:10066000141C1D1C0090019100F0EEF9221C2B1CA3
:10067000061C0F1CFFF7B4FF009A019B121A8B4156
:100680000899301C0A604B60391C03B0F0BDC046AD
:10069000F0B544465F4656464D46F0B41C1C85B046
:1006A000002900DADBE00F1C0021061C8A46101C22
:1006B000191C002C00DAC9E001960090894680469A
:1006C000002951D1B84200D871E000F07FFB00282A
:1006D00009D020234546311C1B1A85408740D9404C
:1006E000A8460F4386404246150C13041B0C291CD8
:1006F000381C9B46FFF704FF5B464343041C291C40
:10070000381C9946FFF740FF330C08041843814515
:1007100009D94044631E804500D978E1814500D85D
:1007200075E1023C40444946411A8946081C291C8F
:10073000FFF7E6FE5A464243071C291C48469346EB
:10074000FFF722FF36040904360C0E43B34507D9E0
:1007500046447B1EB04502D8023FB34500D81F1C5B
:1007600024042743002403E0B94211D900240027C0
:100770005246381C211C002A03D03B1C0021584241
:10078000A14105B03CBC90469946A246AB46F0BD9F
:10079000081C00F01BFB041E00D0BFE0B94500D2CE
:1007A00042E1019D0099071C8D424741E0E7002886
:1007B00004D101200021FFF7A3FE8046404600F04F
:1007C00005FB002852D1414644460B043C1B1B0C40
:1007D000A3460D0C00930124291C5846FFF790FEF8
:1007E000009F81464743291C5846FFF7CDFE330C36
:1007F000090419438F4208D94B464144013B8845BF
:1008000002D88F4200D91AE19946C91B8B46081CB1
:10081000291CFFF775FE009B291C4343071C584603
:100820000093FFF7B1FE3604009D0904360C0E4319
:10083000B54207D946447B1EB04502D8023FB542B7
:1008400000D81F1C49460E04374391E75246D24355
:10085000031C0C1C924600215842A1412CE70027A2
:1008600046428F41012149428A4620E720231B1A34
:100870004246351C82403C1CDD40DC4087402B1C3E
:10088000150C3B43291C8640201C009317049046FE
:10089000FFF736FE3F0C011C794381468B46201C36
:1008A000291CFFF771FE009C0904230C19438B459A
:1008B0000CD94B464144013B884500D9BDE08B45EE
:1008C00000D8BAE002225242914441445C460C1BDB
:1008D000201C291C0194FFF713FE391C4143041C02
:1008E0008B460198291CFFF74FFE009A0904130458
:1008F0001B0C19438B4509D94144631E884500D917
:1009000097E08B4500D894E0023C41445B46CB1A0B
:1009100049469B460B041C4300975DE7009D20233E
:100920001B1A4A468240DD401543391C009AD940C3
:1009300082408846311C0092D9403A1C82400B1CF0
:10094000134301932F0C2B041B0C391C40460293BC
:10095000FFF7D6FD029A81464243391C4046934632
:10096000FFF712FE019A0904130C19438B450AD9AB
:100970004B464919013B8D425DD88B455BD902231B
:100980005B42994449195A468A1A101C391C039231
:10099000FFF7B6FD029B80464343391C03989B46F4
:1009A000FFF7F2FD019A090413041B0C19438B4550
:1009B0000AD943464919013B8D4238D88B4536D96F
:1009C00002235B42984449195D464D1BAB4649469C
:1009D000009D0F04424617432A04120C3B042D0CC1
:1009E0001B0C380C111C594342436B436843D3180A
:1009F0000D0C5B198C469A4202D980225202801853
:100A00001D0C401983450CD303D00024B0E61C1CF8
:100A100089E665462A041B04120C9B18A6409E42D8
:100A2000F3D2013F0024A3E600240127A0E6984664
:100A3000CAE71C1C6AE79946A5E7994646E70222E1
:100A4000524291444144E0E6F0B55F4656464D4679
:100A50004446F0B40D1C85B0061C924698460290A0
:100A6000019103921F1C141C8346A946002B59D1E7
:100A7000AA4269D9101C00F0A9F900280AD0202345
:100A80001B1A311CD94085400B1C2B4386408440E7
:100A90009946B346250C23041B0C291C484698464E
:100AA000FFF72EFD4646071C4643291C4846FFF724
:100AB0006BFD5A460904130C19438E4209D90919D2
:100AC0007B1E8C4200D957E18E4200D854E1023F90
:100AD0000919891B8946081C291CFFF711FD43468B
:100AE0004343061C291C48469846FFF74DFD5A46CD
:100AF000130409041B0C1943884508D90919731EEE
:100B00008C4200D936E1023E884500D832E13804F3
:100B100030430027391C05B03CBC90469946A2469C
:100B2000AB46F0BD019A934262D8181C00F04EF912
:100B3000041E60D1019B9F4200D22CE1029F0399C9
:100B40008F4260410027E5E7002A04D101200021FF
:100B5000FFF7D6FC041C201C00F038F9002800D058
:100B6000B9E023042D1B1B0CA946260C984601272F
:100B7000311C4846FFF7C4FC41464143051C8A46E8
:100B80004846311CFFF700FD5A460804130C184371
:100B9000824507D900196B1E844202D8824500D9CC
:100BA00010E11D1C5346C31A181C311C9A46FFF74E
:100BB000A7FC41464143814688465046311CFFF719
:100BC000E3FC5A46130409041B0C194388450BD94E
:100BD0004B460919013B8C4200D9CFE0884500D82B
:100BE000CCE002235B42994428044946084391E73C
:100BF000002700208EE720231B1A424657468240DA
:100C0000DF401743524682400192321CDA40291CD1
:100C1000D9408540131C2B4302933D0C3B041B0C15
:100C20008846081C291C9A46FFF76AFC5346434332
:100C30008146291C40469B46FFF7A6FC029A090400
:100C4000130C19438B4506D94B46C919013B8F42FA
:100C500000D8ABE099465A468A1A101C291C9346C4
:100C6000FFF74EFC53464343291C804658469A469C
:100C7000FFF78AFC029A090415042D0C29438A45C2
:100C800006D94346C919013B8F4200D886E09846F1
:100C90005746CF1BBA464946019F080442461043B7
:100CA0003D042D0C03043F0C1B0C020C291C594362
:100CB00055437B437A43EB180F0CDB198C469D425E
:100CC00002D980277F02D2191D0C521992455FD399
:100CD00056D000271EE720231B1A311C2F1CD94099
:100CE000DF4085400B1C84402B4386400193B34674
:100CF0002304260C1B0C381C311C9846FFF700FC03
:100D000042464243051C311C381C9146FFF73CFC0F
:100D1000019F09043B0C1943894507D909196B1E2A
:100D20008C424DD889454BD9023D09194A468A1A49
:100D3000101C311C9246FFF7E3FB43464343071C5C
:100D4000311C50469946FFF71FFC019A0904130411
:100D50001B0C1943894507D909197B1E8C422DD8D4
:100D600089452BD9023F09194B46CB1A2D049946C8
:100D70002F43FDE61E1CCAE61F1CAAE6994633E770
:100D800061460A041B04120C9B18A6409E42A0D286
:100D900001380027BEE600270120BBE68A4500D8BF
:100DA00075E702235B429844C91971E78B4500D867
:100DB00050E702235B429944C9194CE71F1CD3E753
:100DC0001D1CB3E7023D0019ECE6C0461C210123BF
:100DD0001B04984201D3000C10391B0A984201D31E
:100DE000000A08391B09984201D30009043902A2FC
:100DF000105C40187047C046040302020101010163
:100E0000000000000000000080B500AF02F056FCBA
:100E1000BD4680BD80B500AF02F080FC01F08EFAC7
:100E2000FFF7F2FFBD4680BD80B500AF002001F0A6
:100E30005FFFBD4680BDC04680B582B000AF786020
:100E40007B68181C01F060FABD4602B080BDC04648
:100E500080B582B000AF786039603B681F2B06D93F
:100E60000749084A084B081CB32102F07BFE3B6887
:100E700001229A407B685A60BD4602B080BDC046E0
:100E8000404B000038520000904B000080B500AF8E
:100E90001D4B181C0321002201F06CFD1A4B181C7D
:100EA0000421012201F066FD174B181C05210122C7
:100EB00001F060FD144B181C0621012201F05AFDBF
:100EC000114B181C0721002201F054FD0F4B181C78
:100ED0000021002201F04EFD0C4B181C05210022C0
:100EE00001F048FD084B181C0421FFF7B1FF064B29
:100EF000181C0521FFF7ACFF034B181C0621FFF758
:100F0000A7FFBD4680BDC04600F00F4040F00F4037
:100F100080B582B000AFFB1D00221A7017E0FB1DE8
:100F20001B780E4A5B00D31800225A700C4B01222A
:100F30009A740B4B0122DA74094B01221A75084B83
:100F400001225A75FB1D1A78FB1D01321A70FB1D18
:100F50001B780B2BE3D9BD4602B080BDA0FFFF1F5D
:100F600084FFFF1F80B500AF064B1B78002B04D019
:100F7000044B00221A70012300E00023181CBD4618
:100F800080BDC0469EFEFF1F90B583B000AF00231A
:100F90003B60FB1D02221A7019E0FB1D1B785BB23F
:100FA000042B00D10EE03A68131C9B009B185B00D9
:100FB0001A1CFB1D1B785BB24C49CB18DB79D3188C
:100FC000303B3B60FB1D1A78FB1D01321A70FB1D84
:100FD0001B785BB2082BE0DD3A68131C9B009B1862
:100FE000181C0321FFF78CFA031C3B603F4B2E2299
:100FF0005A72FB1D08221A701AE0FB1D00241C57B0
:101000003B68181C0A21FFF7BFFA0B1CDBB2303318
:10101000DAB2364B1B19DA713B68181C0A21FFF74C
:101020006FFA031C3B60FB1D1A78FB1D013A1A7016
:10103000FB1D1B785BB2022BDFDC00233B60FB1D3A
:1010400002221A7019E0FB1D1B785BB2052B00D140
:101050000EE03A68131C9B009B185B001A1CFB1DDA
:101060001B785BB22149CB185B7CD318303B3B60CB
:10107000FB1D1A78FB1D01321A70FB1D1B785BB239
:10108000092BE0DD3A68131C9B009B18181C0321F8
:10109000FFF736FA031C3B60144B2E221A75FB1D1A
:1010A00009221A701AE0FB1D00241C573B68181C0B
:1010B0000A21FFF769FA0B1CDBB23033DAB20B4BB3
:1010C0001B195A743B68181C0A21FFF719FA031CF4
:1010D0003B60FB1D1A78FB1D013A1A70FB1D1B7843
:1010E0005BB2032BDFDCBD4603B090BD5CFFFF1F8E
:1010F00080B500AF1C4B1B782A2B02D02C2B04D0C0
:101100000DE01A4B00221A702CE0194B1B780133AA
:10111000DAB2174B1A70174B00221A7022E0144BE8
:101120001B78062B08D0082B0ED0052B14D10E4BA4
:101130001A78114B1A700FE00E4B1B780A4A12787E
:101140000D49CB185A7007E00A4B1B78064A1278F3
:101150000949CB18DA70C046064B1B780133DAB266
:10116000044B1A70BD4680BDCFFEFF1F9DFEFF1FC2
:101170009BFEFF1F9CFEFF1F50FFFF1F80B500AFAF
:10118000704B1B782A2B02D02C2B07D010E06E4B13
:1011900000221A706D4B01221A70D1E06C4B1B7843
:1011A0000133DAB26A4B1A706A4B00221A70C7E038
:1011B000674B1B78082B00D9BCE09A00664BD3180C
:1011C0001B689F46634B1B78052B00D9AFE09A0044
:1011D000624BD3181B689F465A4B1B78303BDAB2E0
:1011E0005F4B1A702FE05E4B1B781A1C9200D318CD
:1011F000DB18DAB2534B1B78D318DBB2303BDAB2D0
:10120000584BDA701FE0564B1B781A1C9200D3180B
:10121000DB18DAB24B4B1B78D318DBB2303BDAB2B7
:10122000504B1A710FE04E4B1B781A1C9200D318CA
:10123000DB18DAB2434B1B78D318DBB2303BDAB29F
:10124000484B5A71C04672E03E4B1A78454B9A7132
:1012500070E0404B1B783B4A12784249CB18DA7158
:1012600068E0384B1A783F4B1A7463E0394B1B78AF
:10127000344A12783B49CB185A745BE0314B1A78E8
:10128000384BDA7656E0334B1B782E4A12783549C4
:10129000CB181A774EE02F4B1B78191C294B1A7864
:1012A000304820234118CB185A7043E0294B1B7853
:1012B000052B3ED89A002C4BD3181B689F46214B18
:1012C0001B78303BDAB2264B1A702FE0244B1B7888
:1012D0001A1C9200D318DB18DAB21A4B1B78D318F9
:1012E000DBB2303BDAB21F4B9A701FE01C4B1B780D
:1012F0001A1C9200D318DB18DAB2124B1B78D318E1
:10130000DBB2303BDAB2174B5A700FE0144B1B784C
:101310001A1C9200D318DB18DAB20A4B1B78D318C8
:10132000DBB2303BDAB20F4B1A70C04601E0C04668
:1013300000E0C046074B1B780133DAB2054B1A7048
:10134000BD4680BDCFFEFF1F9DFEFF1F9EFEFF1FFF
:101350009BFEFF1F9CFEFF1F5052000074520000B6
:101360009FFEFF1F5CFFFF1F8C52000080B500AF87
:101370003D4B1B782A2B02D02C2B04D01DE03B4B7D
:1013800000221A706DE03A4B1B780133DAB2384B09
:101390001A70384B00221A70354B1B78012B03D87A
:1013A000334B1B780D2B07D8314B1B78023B324A4D
:1013B000D31800229A7054E053E02D4B1B78102B69
:1013C00049D89A002D4BD3181B689F46264B1A7894
:1013D000294B1A703FE0244B1A78274B5A703AE099
:1013E000244B1B78002B02D0012B07D033E01E4B7F
:1013F0001B78303BDAB2224B1A7013E01C4B1B787F
:10140000991E1F4B1B781A1C9200D318DB18DAB2F6
:10141000154B1B78D318DBB2303BDAB2164B5B1896
:101420009A70C04617E0134B1B780F4A1278124986
:10143000CB189A730FE00F4B1B780B4A12780E49AA
:10144000CB189A7407E00B4B1B78074A12780A49AD
:10145000CB189A75C046074B1B780133DAB2054B9F
:101460001A70BD4680BDC046CFFEFF1F9DFEFF1F08
:101470009BFEFF1F9CFEFF1F84FFFF1FA452000066
:101480009FFEFF1F80B500AF514B1B782A2B02D067
:101490002C2B04D00DE04F4B00221A7096E04E4BDF
:1014A0001B780133DAB24C4B1A704C4B00221A7085
:1014B0008CE0494B1B78122B00D981E09A00484BF5
:1014C000D3181B689F46424B1B78312B03D1454BE9
:1014D00000221A7074E073E0404B1B78002B02D09E
:1014E000012B07D06CE03A4B1B78303BDAB23E4B15
:1014F0001A700FE03C4B1B781A1C9200D318DB18B3
:10150000DAB2334B1B78D318DBB2303BDAB2374B4D
:101510001A70C04654E0314B1B78002B02D0012BCF
:1015200007D04DE02A4B1B78303BDAB22E4B1A70B5
:1015300021E02C4B1B78181C2B4B1B781A1C92009B
:10154000D318DB18DAB2224B1B78D318DBB2303B4E
:10155000DAB226494300CB185A70224B1B78234A33
:101560005B00D31800229A701E4B1B780133DAB24D
:101570001C4B1A70C04623E0184B1B78002B02D07E
:10158000012B07D01BE0124B1B78303BDAB2164B15
:101590001A7014E0134B1B78581E134B1B781A1C3F
:1015A0009200D318DB18DAB2094B1B78D318DBB2E0
:1015B000303BDAB20D494300CB189A70C046C046A2
:1015C000064B1B780133DAB2044B1A70BD4680BD5E
:1015D000CFFEFF1F9DFEFF1F9BFEFF1F9CFEFF1FF8
:1015E000E8520000A0FEFF1F9FFEFF1FA0FFFF1F8D
:1015F00080B500AF4D4B1B78002B00D17AE04C4BEF
:101600001B78002B26D04B4B1B78022B0BD002DC17
:10161000012B05D010E0042B08D0082B09D00BE0DB
:10162000FFF766FD15E0FFF7A1FE12E0FFF72AFFC6
:101630000FE0FFF7A3FD0CE03E4B00221A703C4B7D
:1016400000221A703C4B01221A70384B00221A708B
:101650006AE069E0394B1B782A2B32D02C2B34D12D
:10166000374B1B79472B06D1354B5B79412B02D188
:10167000304B01221A70324B1B79532B06D1304B61
:101680005B79412B02D12B4B02221A702C4B5B79D8
:10169000562B02D1274B04221A70294B5B79432B1E
:1016A00002D1244B08221A70214B01221A70224BBE
:1016B00001221A70234B00221A70234B00221A7049
:1016C00017E01A4B00221A7013E01B4B1B781B4AC1
:1016D00011781B4AD154184B1B780133DAB2164BE0
:1016E0001A70154B1B78062B1ED9104B00221A704E
:1016F0001AE019E0114B1B78242B15D10F4B1A78E7
:101700000F4B1A70094B01221A700B4B01221A70F1
:10171000074B00221A70074B00221A70094B002257
:101720001A70094B00221A70BD4680BD9DFEFF1F36
:101730009AFEFF1F98FEFF1F99FEFF1FCFFEFF1F9F
:1017400000FEFF1F9BFEFF1F9CFEFF1F80B584B0A5
:1017500000AFF860B960FB1D1A70BB681F2B06D97B
:1017600009490A4A0A4B081CFF2102F0FBF9BB6831
:101770009B00FA68D318074A1343FA1D1278120225
:101780001A60BD4604B080BD9C4B0000C4540000EC
:10179000EC4B00000000101480B586B000AFF8607C
:1017A000B960FB1D1A703B1C173300221A7012E03F
:1017B0003B1C17331B78FA68D3183A1C173212787F
:1017C000B9688A1812781A703B1C17331A783B1CB8
:1017D000173301321A703A1C1732FB1D12781B782E
:1017E0009A42E5D3BD4606B080BDC04680B584B000
:1017F00000AF3A60FB1D021C1A70BB1D0A1C1A7058
:10180000FB1D1B78181C01F05FFC031CFB603B6890
:10181000BB60BB1D1B78042B00D16FE002DC022BE8
:1018200007D05AE1102B00D174E0202B00D175E0D5
:1018300053E1BB685A68FB685A60BB681A68A84BDA
:101840001B78591CC8B2A6490870D218FB68DA6028
:10185000FB6801221A75A34B1B780E2B4CD89A00FB
:10186000A14BD3181B689F469D4B1B78032B03D1BC
:101870009B4B00221A7040E03FE0994B1B78042BF1
:1018800003D1974B00221A7037E036E0944B1B7857
:10189000062B03D1924B00221A702EE02DE0904BC4
:1018A0001B78072B03D18E4B00221A7025E024E011
:1018B0008B4B1B78082B03D1894B00221A701CE03C
:1018C0001BE0874B1B78092B03D1854B00221A7034
:1018D00013E012E0824B1B780B2B03D1804B0022CC
:1018E0001A700AE009E07E4B1B780C2B03D17C4B6D
:1018F00000221A7001E000E0C046EEE0BB68DA6842
:10190000FB689A60BB689A68FB681A61FB680122F1
:101910005A75E2E0FB6800221A75DEE0BB689B683E
:101920001A78704B1A706E4B00221A706F4B181C8D
:101930000021122202F082F96A4B1B78542B00D945
:10194000C6E09A006A4BD3181B689F46674B00227B
:101950001A70664B04225A70664A674B101C191C99
:101960000422FFF719FFB4E0604B01221A705F4BAD
:1019700006225A705F4A614B101C191C0622FFF7A1
:101980000BFFA6E0594B02221A70584B01225A70E5
:101990005A4B9A79554B9A709BE0544B03221A701C
:1019A000524B09225A70534A554B101C191C0922DC
:1019B000FFF7F2FE8DE04D4B04221A704B4B0122D3
:1019C0005A704E4B1A7C494B9A7082E0474B052265
:1019D0001A70464B0A225A70464A4A4B101C191C70
:1019E0000A22FFF7D9FE74E0404B06221A703F4BE3
:1019F00001225A70414BDA7E3C4B9A7069E03B4BB6
:101A000007221A70394B05225A703A4A3E4B101C75
:101A1000191C0522FFF7C0FE5BE0344B08221A7048
:101A2000324B05225A70334A384B101C191C0522C0
:101A3000FFF7B2FE4DE02D4B09221A702B4B01220D
:101A40005A70334B1A78294B9A7042E0274B0A227E
:101A50001A70264B02225A702D4B5A78234B9A70DB
:101A60002B4B9A78214BDA7033E0204B0B221A7003
:101A70001E4B07225A701F4A264B101C191C0722A6
:101A8000FFF78AFE25E0194B0C221A70174B012232
:101A90005A70214B1A78154B9A701AE0134B0D228D
:101AA0001A70124B01225A701B4B5A780F4B9A70C6
:101AB0000FE00E4B0E221A700C4B01225A70174B7E
:101AC0001A780A4B9A7004E0154B01221A7000E054
:101AD000C046FB6800225A75C046BD4604B080BDB2
:101AE000CCFEFF1FCDFEFF1F34530000A4FEFF1FDE
:101AF00070530000A6FEFF1F08FEFF1F5CFFFF1FC4
:101B000063FFFF1F6DFFFF1F78FFFF1F7DFFFF1F9C
:101B100050FFFF1F53FFFF1F84FFFF1FA0FFFF1F8A
:101B2000CEFEFF1F80B500AF174B184A1A60164B48
:101B3000174A9A60144B01225A60134B0122DA6053
:101B4000144B05221A80134B134A5A60114B0E4A4C
:101B50009A60104B01229A700E4B01221A730F4BA0
:101B6000181C03210222FFF7F1FD0C4B181C042165
:101B70000222FFF7EBFD074A094B0020111C1A1C3B
:101B800001F01CFABD4680BDCCFFFF1FA4FEFF1F65
:101B9000B8FEFF1FBCFFFF1FED17000000A00440B0
:101BA000DCFFFF1F80B584B000AFF860B960FB1D9B
:101BB0001A70BB681F2B06D909490A4A0A4B081C30
:101BC000FF2101F0CFFFBB689B00FA68D318074ADA
:101BD0001343FA1D127812021A60BD4604B080BD8C
:101BE000F84B0000D8540000484C000000001014CE
:101BF00080B582B000AF786039603B681F2B06D992
:101C00000749084A084B081CB32101F0ABFF3B68A9
:101C100001229A407B685A60BD4602B080BDC04632
:101C2000544C00001C550000A44C000080B582B04C
:101C300000AF786039603B681F2B06D90749084A16
:101C4000084B081CBF2101F08DFF3B6801229A4020
:101C50007B689A60BD4602B080BDC046544C00000F
:101C600004550000A44C000080B582B000AF78603D
:101C700039603B681F2B06D908489B235900084A46
:101C8000084B01F06FFF7B681A693B68DA4001235B
:101C90001340181CBD4602B080BDC046544C000025
:101CA000EC540000A44C000080B500AFFFF7B2F880
:101CB000FFF7ECF800F0F2F8FFF734FFFFF728F930
:101CC0000A4A0B4B101C191C012200F085FD031C55
:101CD000002B01D1FFF78CFCFFF744F9031C002B0C
:101CE00001D0FFF751F900F005F8E9E700A0064040
:101CF000CFFEFF1F80B500AF2B4B1B78002B51D0C0
:101D0000294B00221A70294B181C0421012200F0D3
:101D100031FE274B181C0521002200F02BFE254B1D
:101D2000181C03210122FFF73DFF224B181C042140
:101D30000122FFF737FF1E4B181C0321012200F080
:101D400019FE1B4B181C0421012200F013FE184B36
:101D5000181C0521FFF788FF031C002B0FD0134B25
:101D6000181C0421FFF762FF114B181C0321FFF719
:101D70003FFF0F4B181C0421FFF758FF0EE00B4BE1
:101D8000181C0421FFF734FF094B181C0321FFF72F
:101D90004DFF074B181C0421FFF72AFF6420FFF7B3
:101DA0004BF8D4E7BD4680BDCEFEFF1F00F00F40CC
:101DB00040F00F4000A0044080B584B000AFF86050
:101DC000B960FB1D1A70FB68054A9B18054A13434E
:101DD000FA1D127892061A60BD4604B080BDC04656
:101DE000041000000000081D80B582B000AF7860CC
:101DF0000A1CFB1C1A7006497A68FB1C1B78081C1D
:101E0000111C1A1CFFF7D8FFBD4602B080BDC046AA
:101E10000070044080B582B000AF78607B68033307
:101E20008C225205134308221A70BD4602B080BDB1
:101E300080B582B000AF78607B680333882252059A
:101E4000134304221A70BD4602B080BD80B582B033
:101E500000AF78600A1CFB1C1A707B68023390226A
:101E600052051343FA1C12781201D2B21A70BD4601
:101E700002B080BD80B582B000AF78600A1CFB1C48
:101E80001A707B68942252051343FA1C127852018F
:101E9000D2B21A70BD4602B080BDC04680B582B0D5
:101EA00000AF00237B6000200121FFF79DFF002091
:101EB00000F048F9002000F0EBF8031C7B601149AA
:101EC0007A6896239B01081C111C1A1C00F0BEFBAB
:101ED0000C4B181C0021FFF7B9FF0A4B181C0021FE
:101EE00000F05AFC074B181C0021FFF7C3FF054BFD
:101EF000181CFFF78FFF034B181CFFF799FFBD4617
:101F000002B080BD00A0064080B500AF084B1B6842
:101F1000002B0AD0064B1B685A1E054B1A60044B57
:101F20001B68002B00D000E062B6BD4680BDC046F5
:101F3000D0FEFF1F80B500AF72B6034B1B685A1C62
:101F4000014B1A60BD4680BDD0FEFF1F80B582B038
:101F500000AF78600A1CFB1C1A707B680F481A18C7
:101F6000FB1C1B785B09DBB20D495B189B00D31887
:101F70001A1CFB1C19781F230B40DB05134380221E
:101F800052051343FA1C11781F220A400121081C34
:101F90009040021C1A60BD4602B080BD34100000A3
:101FA000FDFFFF3F80B582B000AF786039607B688D
:101FB000044A9B18044A13431B68DBB2181CBD4635
:101FC00002B080BD041000000000081D80B582B082
:101FD00000AF78607B68054A9B18054A13431B686D
:101FE000DBB2181CBD4602B080BDC04644100000E4
:101FF0000000181E80B582B000AF78607B689C221C
:10200000520513431B78DBB25A1E9341DBB2181CF6
:10201000BD4602B080BDC04698B500AF094B181C44
:1020200000F0D4FA041C084B181CFFF7CFFF031C68
:102030000133201C191CFEF763FA031C181CBD4653
:1020400098BDC046004006400070044080B500AF17
:10205000034B181C00F052FA031C181CBD4680BD2F
:102060000040064080B500AF074B1B68181CFFF707
:10207000C1FF031C002B02D0044B1B6800E00023AF
:10208000181CBD4680BDC0467055000014000020DD
:1020900090B585B000AF78603C1C0B34144A7B6867
:1020A000101C191CFFF77EFF031C23703B1C0B3315
:1020B0001B78022B08D0032B0BD0012B10D1FFF77C
:1020C000C5FF031CFB600EE0FFF7CCFF031CFB60A9
:1020D00009E0084B181C00F047FA031CFB6002E003
:1020E0000023FB60C046FB68181CBD4605B090BDD0
:1020F000007004400040064080B582B000AF7860B8
:102100007B68012B05D9094809490A4A0A4B01F0A5
:1021100029FD0A4A7B68D3181B78094A101C191C30
:10212000FFF714FFBD4602B080BDC046B04C0000B2
:102130004F02000038550000AC4D0000345500003F
:102140000070044080B582B000AF78607B68002BDF
:1021500005D007480749084A084B01F003FD6A23E8
:10216000074A101C191CFFF7F1FEBD4602B080BDE6
:10217000B04C00009B02000054550000E44D0000EC
:102180000070044080B500AF074B1A680423134069
:1021900004D1FFF741FF031C1B0902E0FFF73CFFDE
:1021A000031C181CBD4680BD10E000E080B582B065
:1021B00000AF78607B68002B06D10F490F4A104BA7
:1021C000081CCC2101F0CEFC7B685B78DBB2FF2BD6
:1021D00001D101230BE0FFF7ADFE7B685B78DBB23A
:1021E0000133DAB27B685A70FFF78EFE0023181CA9
:1021F000BD4602B080BDC046584E00007455000078
:10220000884E000080B582B000AF78600A1CFB1CCD
:102210001A707B68002B06D10D48B32359000D4A74
:102220000D4B01F09FFC7B6800221A707B68002236
:10223000DA607B68FA1C12781A747B6800225A6094
:102240007B6800229A600023181CBD4602B080BD46
:10225000584E000084550000984E000080B582B0B2
:1022600000AF786039607B68002B07D10B48D8231A
:10227000191CFF310A4A0B4B01F074FCFFF75AFEA0
:102280007B68DA683B681A437B68DA60FFF73CFEDC
:102290000023181CBD4602B080BDC046584E000049
:1022A00094550000984E000080B582B000AF042322
:1022B0007B60124A7B681B01D318083300221A6026
:1022C0000AE07B6801331A010C4BD2180B497B687A
:1022D0001B01CB1808331A607B685A1E7A60002BEA
:1022E000EFD1074B054A1A60064B064A9A60054B28
:1022F000044ADA60BD4602B080BDC046D4FEFF1F6E
:1023000024FFFF1F28FFFF1F80B584B000AF786057
:1023100001F02AFB031CFB6001F026FB031CBB60E1
:10232000FA68BB68101C191C01F006FB021C7B68D4
:102330009A42F1D9BD4604B080BDC04680B500AF19
:10234000FFF7B2FF01F0A8FA0023181CBD4680BDBC
:1023500080B582B000AF78607B680633034A1343D0
:102360001B78DBB2181CBD4602B080BD000008110E
:1023700080B582B000AF7860024B1B68181CBD4668
:1023800002B080BD1400002080B584B000AFF860BA
:10239000B960111C1A1CFB1D1970BB1D1A70FB1DA6
:1023A0001B78BA68111CD9400B1CBB60BB1D1B7885
:1023B000002B21D0FB1D1B78062B0AD002DC002B42
:1023C00017DB02E0072B0CD013E0BB685B09BB6096
:1023D00012E0BB68181C1421FEF792F8031CBB60C6
:1023E0000AE0BB68181C0C21FEF78AF8031CBB60CE
:1023F00002E00023BB60C046BB68181CBD4604B0A9
:1024000080BDC04690B587B002AF78607B688822F7
:10241000520513431B78DBB2002B2BD17B68181CB1
:10242000FFF7A6FF031CFB607B68164A13431A1CC8
:102430003B1C0B3312781A707B680133124A13432A
:102440001A1C3B1C0A3312781A703B1C09330022F9
:102450001A707868F9683B1C0B331A783B1C0A33F6
:102460001B783C1C093424780094FFF78DFF031C73
:10247000FB6002E0054B1B68FB60FB68181CBD4657
:1024800005B090BD000090110000081210FEFF1F63
:1024900080B584B000AFF860B960111C1A1CFB1D38
:1024A0001970BB1D1A70FB1D1B78002B06D0BA6873
:1024B00080231B029A420BD9002314E0BA680C4B0C
:1024C0009A4203D9BA680B4B9A4201D900230AE019
:1024D000BB1D1978FB1D1A78074B49008A1852005A
:1024E000D35ABA685343181CBD4604B080BDC046D9
:1024F000117A000097980000A455000080B584B0C0
:1025000000AF78607B68181CFFF77CFF031CFB6042
:10251000FB68002B01D100231FE07B6803339C2262
:10252000520513431A1C3B1C0B3312781A707B683C
:1025300003330C4A13431A1C3B1C0A3312781A70DB
:102540007868F9683B1C0B331A783B1C0A331B78FC
:10255000FFF79EFF031CFB60FB68181CBD4604B020
:1025600080BDC0460000881280B584B000AF78609E
:102570007B688422520513431B78DBB2002B01D108
:10258000002319E07B6801338022520513431B7836
:10259000DBB2002B03D10A4B1B68FB600BE0094B3D
:1025A0001A687B68083308490B431B78DBB2111C9F
:1025B000D9400B1CFB60FB68181CBD4604B080BDF5
:1025C00010FEFF1F0CFEFF1F0000901090B585B09D
:1025D00000AF78603C1C0B347B68181CFFF7B8FE1A
:1025E000031C23703B1C0B331B78012B0AD0022BDE
:1025F0000FD0002B14D17B68181CFFF77FFF031C42
:10260000FB6010E07B68181CFFF7AEFF031CFB604B
:1026100009E07B68181CFFF7ABFE031CFB6002E0BF
:102620000023FB60C046FB68181CBD4605B090BD8A
:1026300080B582B000AF786039607B68DB79DAB250
:102640003B681A70BD4602B080BDC04680B58CB0F4
:1026500000AFF860B9607A600423FB627B68FA6AB5
:102660005343B868191CFDF74BFF031CBB62FB6AA0
:10267000BA6A5343B868191CFDF742FF031CBB61DB
:10268000BA697B689A4204D9BA697B68D31AFB613C
:1026900003E07A68BB69D31AFB613B1C2733052230
:1026A0001A703CE03B1C27331B787A685343B868A8
:1026B000191CFDF725FF031C1A1C3B1C16331A803E
:1026C0003B1C27331B783A1C163212885343B868D8
:1026D000191CFDF715FF031CBB61BA697B689A42A0
:1026E00004D9BA697B68D31A3B6203E07A68BB6994
:1026F000D31A3B623A6AFB699A4209D83B6AFB618A
:102700003B1C27331B78FB623B1C16331B88BB62C8
:102710003B1C27331A783B1C273301321A703B1CB1
:1027200027331B78202BBDD97B68181C6421FDF74B
:10273000E7FE031C1A1C131C5B009A18FB699A42E3
:1027400024D9FB6A032B09D9FB6A072B06D8FB683F
:102750000B3380221205134302221A70FB680A33DE
:10276000812252051343FA6AD2B2013AD2B21A70E8
:10277000FB68812252051343BA6A120AD2B21A7058
:10278000BB6ADAB2FB685A70002300E00223181C0F
:10279000BD460CB080BDC04680B582B000AF786049
:1027A0000A1CFB1C1A707B680233842252051343F7
:1027B000FA1C127801218A43D2B21A707B68023364
:1027C000802252051343FA1C117801220A40D2B22A
:1027D0001A70BD4602B080BD80B586B000AFF8600B
:1027E000B9607A603B1C173300221A702BE0C04698
:1027F000FB6804339422520513431B78DBB2002B91
:10280000F6D0BB685A1CBA60FA68101C191CFFF796
:102810000FFFFB6804338C22520513431B78DBB295
:102820003A1C1732391C173109781170002B0AD065
:10283000FB6804338C225205134308221A703B1C98
:1028400017330F221A707B685A1E7A60002BCED184
:102850003B1C17331B78181CBD4606B080BDC04614
:1028600080B582B000AF78600A1CFB1C1A707B68D0
:10287000DB78DBB21A1CFB1C1B78111C19410B1CEA
:102880001A1C012313405A1E9341DBB2181CBD468B
:1028900002B080BD80B582B000AF78607B68002256
:1028A0001A707B6800225A707B6800229A707B68DD
:1028B0000022DA707B6800225A717B6800229A71CC
:1028C0007B680022DA71BD4602B080BD80B584B05D
:1028D00000AF78607B6802339422520513431B7863
:1028E000DBB2012B06D01449144A154B081CFF21FA
:1028F00001F038F90023FB607B6802338022D204A8
:102900001343CF221A700AE0FB680133FB60FA68B8
:102910008023DB009A4201D1092309E0C0467B688D
:10292000181C0521FFF79CFF031C002BECD1002392
:10293000181CBD4604B080BDBC4E0000B45500005C
:10294000E84E000080B582B000AF78600A1CFB1C26
:102950001A70FB1C1B78DB18DAB27B681A707B6874
:10296000053398225205134300221A70BD4602B067
:1029700080BDC04680B584B000AFF860B960FB1D73
:102980001A70BB681F2B06D91249134A134B081C37
:102990002E2101F0E7F8FB1D1B78012B0BD1FB6802
:1029A0001433802212051343BA680121081C904099
:1029B000021C1A600BE0FB6814338022D20413431C
:1029C000BA680121081C9040021CD2431A60BD461F
:1029D00004B080BD044F0000C8550000304F000017
:1029E00080B582B000AF78607B6802338C225205DC
:1029F000134300221A70BD4602B080BD80B582B07C
:102A000000AF78607B6802338C22520513430822A2
:102A10001A70BD4602B080BD80B582B000AF78604C
:102A20007B6802339022520513431B78DBB2181CDB
:102A3000BD4602B080BDC04680B582B000AF7860B0
:102A40007B681B79DBB2181CBD4602B080BDC04656
:102A500080B582B000AF78600A1CFB1C1A707B68DE
:102A6000FA1C12781A71BD4602B080BD80B582B0E2
:102A700000AF78600A1CFB1C1A707B68DB78DBB245
:102A80001A1CFB1C1B78111C19410B1C1A1C01235E
:102A900013405A1E9341DBB2181CBD4602B080BDE4
:102AA00080B582B000AF78607B6802339422520513
:102AB00013431B78DBB25A1E9341DBB2181CBD4690
:102AC00002B080BD80B582B000AF78600A1CFB1CEC
:102AD0001A707B680233982252051343FA1C12784D
:102AE0009201D2B21A70BD4602B080BD80B582B0EC
:102AF00000AF78607B680222DA70BD4602B080BD0C
:102B000090B587B000AF78607B68012B06D9444848
:102B1000B3235900434A444B01F024F8434B7A68ED
:102B20009200D3587B617B69181CFFF7DFFF404B95
:102B30007A689200D3583B613C1C0F347B69181CA7
:102B4000FFF76AFF031C23707B69181C0521FFF740
:102B50008DFF031C01225340DBB2002B09D17B699E
:102B6000181CFFF79DFF031C01225340DBB2002B12
:102B700000D052E03B1C0F331B78012B29D17B691D
:102B8000181C0021FFF772FF031C002B07D03B69C4
:102B900005221A747B68181C00F04CF83DE03B6974
:102BA000DB68013B3A69D360002B0DD03B699B6821
:102BB0005A1C3B699A603B699B681B787A69101CB8
:102BC000191CFFF745FF28E07B68181C00F032F85D
:102BD00023E03B695B68013B3A695360002B02D0FC
:102BE000012B05D009E07B68181C00F023F809E0F0
:102BF0007B69181CFFF702FF04E07B69181CFFF7D4
:102C0000EFFEC0463B691C68621C3B691A607B6929
:102C1000181CFFF711FF031C2370BD4607B090BDC1
:102C2000D44F0000E855000014500000DC550000AF
:102C300038FFFF1F80B584B000AF78607B68012B40
:102C400006D91D48EA2359001C4A1D4B00F08AFF93
:102C50001C4B7A689200D358FB601B4B7A68920039
:102C6000D358BB60BB68DB7C01225340DBB2002B36
:102C700009D1BB681B7CDBB2052B04D0BB681B7C75
:102C8000DBB2042B0BD1FB68181C0021FFF71AFFE5
:102C9000FB68181CFFF71AFEBB6801225A74BB6858
:102CA0009B7C002B04D0BB681833181CFFF77EFAFE
:102CB000BD4604B080BDC046D44F0000045600009D
:102CC00014500000DC55000038FFFF1F80B582B0B3
:102CD00000AF78607B6802339422520513431B785F
:102CE000DBB25A1E9341DBB2181CBD4602B080BD58
:102CF00080B584B000AF78607B68012B06D90F499E
:102D00000F4A104B081C442100F02CFF0E4B7A6830
:102D10009200D358FB60FB68181CFFF7D7FF031C19
:102D2000002B04D07B68181CFFF7EAFE03E07B68E9
:102D3000181C00F0D7F9BD4604B080BD4C5000000F
:102D40002056000088500000DC55000080B582B09D
:102D500000AF021CFB1D1A70064BFA1D1278111CE5
:102D60001F220A400121081C9040021C1A60BD4627
:102D700002B080BD00E100E080B582B000AF7860B5
:102D80007B6802339C225205134380221A70BD4691
:102D900002B080BD80B582B000AF78600A1CFB1C19
:102DA0001A707B680233902252051343FA1C127882
:102DB0001201D2B21A70BD4602B080BD80B582B099
:102DC00000AF78607B6802339022520513431B7872
:102DD000DBB2181CBD4602B080BDC04680B582B0D3
:102DE00000AF78607B681B79DBB2181CBD4602B06F
:102DF00080BDC04680B582B000AF78600A1CFB1C65
:102E00001A707B68FA1C12781A71BD4602B080BD38
:102E100080B582B000AF78600A1CFB1C1A707B681A
:102E2000DB78DBB21A1CFB1C1B78111C19410B1C34
:102E30001A1C012313405A1E9341DBB2181CBD46D5
:102E400002B080BD80B582B000AF78607B68102290
:102E5000DA70BD4602B080BD80B582B000AF786048
:102E60000A1CFB1C1A707B6802339822520513431C
:102E7000FA1C12789201D2B21A70BD4602B080BD1F
:102E800080B582B000AF78607B680222DA70BD4600
:102E900002B080BD80B582B000AF78607B68063339
:102EA0009822520513431B78DBB25A1E9341DBB2C2
:102EB000181CBD4602B080BD80B582B000AF7860FE
:102EC0007B68063398225205134340221A70BD4690
:102ED00002B080BD80B582B000AF78600A1CFB1CD8
:102EE0001A707B680633942252051343FA1C127839
:102EF0005201D2B21A70BD4602B080BD80B582B018
:102F000000AF78607B6806339422520513431B7828
:102F1000DBB25A1E9341DBB2181CBD4602B080BD25
:102F200080B582B000AF78607B680633902252058E
:102F300013431B78DBB25A1E9341DBB2181CBD460B
:102F400002B080BD80B582B000AF78607B68063388
:102F500090225205134310221A70BD4602B080BD64
:102F600080B582B000AF021CFB1D1A70FB1D1B78E0
:102F70007F2B06D90D490E4A0E4B081C5D2100F02F
:102F8000F1FDFB1D1B785BB21F2B06DD0749084ACC
:102F9000094B081C5E2100F0E5FDFB1D1B785BB2B0
:102FA000181CFFF7D3FEBD4602B080BDA85000003C
:102FB00048560000045100001451000080B586B04E
:102FC00000AFF860B9607A607B68002B06D13749A2
:102FD000374A384B081C392100F0C4FDFB68012B2F
:102FE00006D93249324A344B081C3A2100F0BAFD66
:102FF000324BFA689200D3587B61314BFA689200E9
:10300000D358002B01D001234BE07B68181C002112
:10301000382200F013FEBB6899787A682C23D154CB
:10302000BB685A687B681A63BB689A687B685A6396
:10303000FB68181CFFF760F87B69181CFFF72AFC77
:10304000BB681B88DBB27A69101C191CFFF77AFC7D
:103050001B4BFA6892007968D1507B681833181CB2
:103060000021FFF7CFF8BB681B7B002B04D07B69E6
:10307000181C0121FFF72EFF7A682C23D35C7A6994
:10308000101C191CFFF7E8FE0E4AFB68D3181B78CA
:103090005BB2181CFFF764FF7B69181CFFF76CFE1E
:1030A0000023181CBD4606B080BDC046405100003C
:1030B000345600007851000080510000DC550000BB
:1030C00038FFFF1FE455000080B582B000AF786084
:1030D000034B7A689200D358181CBD4602B080BDDD
:1030E00038FFFF1F90B589B000AF78607B68012B77
:1030F00005D9B348B349B44AB44B00F033FDB44BDF
:103100007A689200D358BB613B1C173300221A70B7
:103110003B1C1F3300221A703C1C1634BB69181C60
:103120000421FFF775FE031C23703C1C1534BB699A
:10313000181C0621FFF76CFE031C23703B1C143384
:1031400000221A703C1C1334BB69181CFFF7E8FE00
:10315000031C23703C1C1234BB69181CFFF7CEFE05
:10316000031C23703C1C1134BB69181CFFF792FE32
:10317000031C23703B1C14333A1C123212781A7051
:10318000944B7A689200D358FB603C1C0B34BB69AB
:10319000181CFFF713FE031C23703B1C12331B7813
:1031A000002B1CD03B1C13331B78002B17D0BB69A2
:1031B000181CFFF7C7FEBB69181CFFF761FEFB6810
:1031C0001B6B002B0AD0FB681C6B7B68DAB2FB68B8
:1031D0005B6B101C01211A1CA04791E190E13B1C84
:1031E00014331B78002B35D03B1C11331B78002B7C
:1031F00030D0BB69181CFFF75FFEBB69181CFFF7D6
:103200003FFEFA682C23D35C01225340DBB2002B33
:1032100004D0BB69181C0021FFF71EFEFB681B6B66
:10322000002B09D0FB681C6B7B68DAB2FB685B6B18
:10323000101C80211A1CA047FB68DB7D002B05D0E9
:10324000FB681833181C8021FFF708F8FB680A2276
:103250001A7055E1BB69181CFFF712FE3B1C1633B0
:103260001B78002B1DD0BB69181CFFF7EBFD3B1C26
:1032700015331B7801225340DBB2002B11D0FB68C1
:1032800008221A70FA682C23D35C01225340DBB267
:10329000002B05D0BB69181C0021FFF7DDFD2FE1D5
:1032A0002EE13B1C15331B78002B37D0BB69181C53
:1032B0000221FFF7ADFD031C002B17D0BB69181CC2
:1032C0000121FFF767FDFB681B6B002B09D0FB6832
:1032D0001C6B7B68DAB2FB685B6B101C02211A1C4A
:1032E000A0473B1C1F3301221A70CCE0BB69181C9D
:1032F0000021FFF74FFDFB681B6B002B09D0FB681B
:103300001C6B7B68DAB2FB685B6B101C04211A1C17
:10331000A047BB69181CFFF761FDB4E03B1C0B33F1
:103320001B78012B58D1BB69181C0021FFF770FDD9
:10333000031C002B3FD0BB69181C0021FFF72AFD9E
:10334000BB69181CFFF74AFDFA682C23D35C0122E5
:103350005340DBB2002B0CD03B1C14331B780122F2
:103360005340DBB2002B04D0BB69181C0021FFF7CF
:1033700073FDFB681B6B002B09D0FB681C6B7B6823
:10338000DAB2FB685B6B101C08211A1CA047FB68B3
:103390009B7D002B05D0FB681833181C0821FEF715
:1033A0005DFFFB6800225A60FB680022DA60FB6860
:1033B00000221A7567E03B1C1F3301221A7062E07D
:1033C000405100002E0200005C56000080510000B9
:1033D000DC55000038FFFF1F3C1C1734BB69181C6C
:1033E000FFF7FCFC031C2370FB689B68002B47D095
:1033F000FB681B693A1C173212781A70FB681B694C
:103400005A1CFB681A61FB689B685A1EFB689A602D
:10341000FB689B68002B36D13B1C14331B780122C0
:103420005340DBB2002B16D0FA682C23D35C012268
:103430005340DBB2002B04D0BB69181C0021FFF7FE
:103440000BFDFB68DB7D002B05D0FB681833181CD7
:103450002021FEF703FFFB6800225A75FB6800225B
:103460001A61FB681B6B002B0DD0FB681C6B7B6823
:10347000DAB2FB685B6B101C20211A1CA04702E02B
:10348000FB6807221A703B1C1F331B78002B37D0B8
:10349000FB685B68002B30D0FB68DA683B1C173395
:1034A00012781A70BA693B1C17331B78101C191C50
:1034B000FFF7A0FCFB68DB685A1CFB68DA60FB685E
:1034C0005B685A1EFB685A60FB685B68002B17D16B
:1034D000FB680022DA60FB6800221A75FB681B6B30
:1034E000002B0DD0FB681C6B7B68DAB2FB685B6B52
:1034F000101C10211A1CA04702E0FB6806221A705B
:10350000BD4609B090BDC04680B500AF2F4A8823A4
:103510005B010021D1502E4B1B78DBB21A1C01231A
:1035200013400ED02B4B9B78DBB21A1C08231340A0
:1035300007D0284B274A9278D2B208210A43D2B248
:103540009A70254B00221A70204A244B0021D1503A
:103550001E4A1E49224BCB58802189001943204B1B
:10356000D150204B1F4AD1681F4A0A40DA601F4BD6
:1035700000221A721D4B06221A70C0461B4B9B7903
:10358000DBB21A1C10231340F8D0184B174A52789C
:10359000D2B240218A43D2B25A70144B134AD27825
:1035A000D1B21F220A40D2B2DA70114B80221A70B7
:1035B0000E4B00225A71C0460C4B9B79DBB21A1C91
:1035C0000C231340F8D1BD4680BDC04600700440B6
:1035D00000F0074000D0074000E007404410000022
:1035E0003810000000900440FFF8FFFE0040064045
:1035F0000050064080B588B000AF274BFB60274ADB
:10360000274B9A4216D00023FB610AE0244BFA694B
:103610009200D158214BFA699200D150FB690133D5
:10362000FB61FB689A08FB699A42EFD81D4B1B4A65
:103630009A6002E01B4B1A4A9A601B4BBB611B4B02
:103640007B611B4BBB60BA687B69D31AFB6107E0E7
:10365000BB695A1CBA617A69511C796112781A7077
:10366000FB695A1EFA61002BF2D1124B3B61124BDF
:103670007B607A683B69D31AFB6104E03B695A1CA2
:103680003A6100221A70FB695A1EFA61002BF5D1CB
:10369000BD4608B080BDC0460002000000FCFF1F10
:1036A0000000000000ED00E000FEFF1F9857000042
:1036B000145800007CFEFF1F2000002080B500AFE2
:1036C000BD4680BD80B582B000AF78600A1CFB1C8F
:1036D0001A707B680F481A18FB1C1B785B09DBB259
:1036E0000D495B189B00D3181A1CFB1C19781F236B
:1036F0000B40DB051343802252051343FA1C11785B
:103700001F220A400121081C9040021C1A60BD467D
:1037100002B080BD34100000FDFFFF3F80B500AF58
:10372000104B181C8921FFF7CDFF0E4B181C8A2166
:10373000FFF7C8FF0C4B00221A60002000F070F960
:10374000002000F083F9012000F080F9002000F053
:10375000BBF9002000F0D2F9002000F0DFF9BD46EF
:1037600080BDC0460070044014000020B0B582B097
:1037700000AF021C3960FB1D1A70FB1D1B787F2BEC
:1037800032D93049FB1D1B781A1C0F231340083B0C
:1037900098082C4AFB1D1B781C1C0F232340083B58
:1037A0009B0806339B00D3185B68FA1D1278141C23
:1037B00003222240D200FF24251C95402A1CD2431C
:1037C0001A403B689C01FF231C40FB1D1B781D1CFD
:1037D00003232B40DB00251C9D402B1C1A43831D1B
:1037E0009B00CB185A6029E0174BFA1D127852B291
:1037F00092081549F81D007840B28008C03080005A
:103800004158F81D0078041C03202040C000FF240C
:10381000251C8540281CC043084039688C01FF21C5
:103820000C40F91D09780D1C03212940C900251CF5
:103830008D40291C0143C0329200D150BD4602B0D8
:10384000B0BDC04600ED00E000E100E080B582B010
:1038500000AF021CFB1D1A70074B074A12680421B7
:10386000101C8843011CFA1D127892000A431A604A
:10387000BD4602B080BDC04610E000E080B500AF9C
:10388000044B1B889BB201339AB2024B1A80BD468F
:1038900080BDC04640FFFF1FB0B582B000AF224BD5
:1038A00000221A60204B00229A600120FFF7CEFF11
:1038B000FEF768FC031C1C1C00231D1C201C291C7B
:1038C000164B154AFCF78CFE031C0C1C181C211C03
:1038D000134A144BFCF764FE031C0C1C3B607C6019
:1038E0003B687A68134306D11049114A114B081CF2
:1038F000682100F037F90C4B3A68013A5A6001230D
:103900005B42181C0121FFF731FF074B07221A60A9
:10391000BD4602B0B0BDC046E80300000000000094
:1039200040420F000000000010E000E0B051000035
:1039300074560000CC51000080B582B000AF7860B2
:1039400039603A687B689A4203D33A687B68D31A35
:1039500005E03A687B68D31A802252029B18181C33
:10396000BD4602B080BDC04680B500AF024B1B888B
:103970009BB2181CBD4680BD40FFFF1F80B584B0C0
:1039800000AFF860B960FB1D1A70BB681F2B06D929
:1039900009490A4A0A4B081CFF2100F0E3F8BB68FA
:1039A0009B00FA68D318074A1343FA1D12781202D3
:1039B0001A60BD4604B080BDDC5100008456000092
:1039C0002C5200000000101480B584B000AFF860E5
:1039D000B960FB1D1A70FB68054A9B1888225205C6
:1039E0001343FA1D127892001A60BD4604B080BDE0
:1039F0001010000080B584B000AFF860B960FB1D06
:103A00001A70FB68054A9B18802252051343FA1D61
:103A100012781A60BD4604B080BDC0461010000088
:103A200080B582B000AF7860074B181C00210322DC
:103A3000FFF7A4FF044B181C02210322FFF79EFF8F
:103A4000BD4602B080BDC0460090044080B582B043
:103A500000AF78607B68002B02D0012B1FD02BE0D9
:103A6000174B181C03210122FFF788FF144B181C69
:103A700004210122FFF782FF114B181C05210122AE
:103A8000FFF77CFF0E4B181C06210122FFF776FF83
:103A90000B4B181C07210122FFF770FF0CE0094BAC
:103AA000181C00210122FFF769FF064B181C052195
:103AB0000122FFF763FFC046BD4602B080BDC0468D
:103AC0000090044000A0044080B582B000AF786050
:103AD0007B68002B00D00CE0074B181C032102224E
:103AE000FFF74CFF044B181C04210222FFF746FF8E
:103AF000C046BD4602B080BD00A0044080B582B083
:103B000000AF7860044B181C01210322FFF736FF39
:103B1000BD4602B080BDC0460090044080B582B072
:103B200000AF78600D4B181C01210222FFF726FF21
:103B30000B4B181C00210022FFF75CFF084B181CE0
:103B400000210022FFF740FF044B181C0221022233
:103B5000FFF714FFBD4602B080BDC04600A0044080
:103B6000007004407FB5061C09480068C068002A40
:103B700002D0151C074C01E0074C251C1A1C0091B3
:103B8000331C06490194029500F020F800F090FCE7
:103B900074FEFF1F98560000D3560000A556000083
:103BA000084B10B5041C002B02D0002100E000BF20
:103BB000054B1868836A002B00D09847201C00F042
:103BC000BDFFC04600000000D85600000EB403B58B
:103BD00003AB04CB054A011C1068039A019300F063
:103BE0000BF902B008BC03B01847C04674FEFF1FB3
:103BF00070B50E4B0E4D0024ED1AAD101E1CAC42DC
:103C000004D0A300F35898470134F8E701F0B0FD61
:103C1000084B094D0024ED1AAD101E1CAC4204D017
:103C2000A300F35898470134F8E770BD905700009F
:103C3000905700009057000094570000031C821812
:103C4000934202D019700133FAE7704730B500296A
:103C500040D004390B68002B00DAC9181E4A1368DB
:103C6000141C002B02D14B60116033E099420FD23B
:103C700008680A189A4205D113685268C01808608B
:103C80004A6000E04B60216024E08A4203D8131CA4
:103C90005A68002AF9D11D685C198C420BD1096859
:103CA000691858181960904214D11468526809199B
:103CB00019605A600EE08C4202D90C23036009E0BF
:103CC00008680C18944203D11468526800190860FF
:103CD0004A60596030BDC04648FFFF1F70B50323DE
:103CE000CD1C9D430835061C0C2D01D20C2501E08E
:103CF000002D3FDB8D423DD3204B1C681A1C211C3C
:103D0000002913D00868431B0DD40B2B02D90B607C
:103D1000CC181EE08C4202D1636813601AE0486838
:103D200060600C1C16E00C1C4968E9E7144C206824
:103D3000002803D1301C00F025F82060301C291C1D
:103D400000F020F8431C15D0C41C03239C4384427C
:103D50000AD12560201C0B300722231D9043C31A73
:103D60000BD05A42E25008E0211A301C00F00AF849
:103D70000130EED10C233360002070BD48FFFF1FDF
:103D800044FFFF1F38B5074C0023051C081C2360A7
:103D900000F0B2FE431C03D12368002B00D02B603F
:103DA00038BDC0461C000020936810B5013B9360ED
:103DB000002B05DA9469A34208DBCBB20A2B05D0AD
:103DC0001368581C10601970C8B201E000F0A6FA20
:103DD00010BDF8B5061C0F1C141CD518AC4208D039
:103DE0002178301C3A1CFFF7DFFF0134431CF5D16A
:103DF00000E00020F8BD0000F0B59FB0061C0F1CCD
:103E000003920593002804D08169002901D100F0B4
:103E10005FFC754B9F4201D1776808E0734B9F426E
:103E200001D1B76803E0724B9F4200D1F768BB89AC
:103E30001A070AD53B69002B07D006AD00236B613A
:103E400020236B763023AB763BE0301C391C00F02E
:103E5000BDFA0028F1D001204042C2E0059A111DB0
:103E600012680591002A76DB0992013423782E2B03
:103E700000D181E021785F48032200F0E9FC0028AE
:103E800007D05C492A68431A4020984010432860B4
:103E900001342178631C584806220393297600F0E8
:103EA000D7FC002800D18AE0544B002B7ED1059B23
:103EB000072207339343083305936A69049953181B
:103EC0006B61039C2378002B04D10399611A029142
:103ED00010D003E0252BF8D00134F3E7301C391C57
:103EE000039A029BFFF775FF013075D06A6902994A
:103EF00053186B612378002B6ED0012252426A6006
:103F00006A4600235B3201342B60EB60AB601370B8
:103F1000AB6521783A48052200F09AFC002808D0C9
:103F2000374A0134831A012098402B6818432860CF
:103F3000EFE72B68D90603D56A4620215B32117062
:103F40001A0703D56A462B215B32117022782A2A80
:103F500084D0099B05E05242EA60022213432B60A1
:103F600083E72278303A092A04D80A214B430134E6
:103F70009B18F6E7099379E763782A2B09D1059B0B
:103F800002341A1D1B680592002B0DDA01235B42D7
:103F90000AE0013400232278303A092A04D80A21A1
:103FA0004B4301349B18F6E7079363E705AB009397
:103FB000301C291C3A1C134B00E000BF07E005AB86
:103FC0000093301C291C3A1C0E4B00F091F8049011
:103FD0000499013100D070E7BB895A0600D53AE751
:103FE0000B981FB0F0BDC0461057000030570000BE
:103FF00050570000E2560000E656000000000000A6
:10400000DC560000D33D0000F7B5151C01930A698A
:104010008B68061C0C1C934200DA131C221C2B60BC
:1040200043321278002A01D001332B6020688006C9
:1040300002D52B6802332B60216806270F401FD062
:10404000231C43331B785A1E9341226892061FD5C6
:10405000E11840313020C870211C5A1C45310978C4
:10406000A21840320233D17012E0221C301C019998
:1040700019320123089FB847013011D0009F013742
:104080000097E0682968009F431A9F42EDDBD7E75D
:10409000221C301C01994332089FB847013002D1DD
:1040A0000120404223E0206806212B68E26801409D
:1040B0000025042903D1D51AEB43DB171D40A26864
:1040C00023699A4201DDD31AED1800270097009F5B
:1040D000AF420BDA221C301C01991A320123089FCF
:1040E000B8470130DCD0009F0137EFE70020FEBD6C
:1040F000F0B50D1C8BB043350692059007930495DF
:104100000B7E0C1C109A6E2B00D1A7E011D8632BEC
:1041100022D009D8002B00D1B0E0582B00D0C0E04D
:1041200045310B707B4D4EE0642B1CD0692B1AD0AF
:10413000B7E0732B00D1A5E009D86F2B29D0702BE5
:1041400000D0AEE00E68202333430B6036E0752BC1
:104150001FD0782B32D0A4E013680D1C191D4235F6
:1041600011601B689FE0216813680E0603D5191DB6
:1041700011601E6805E04806F9D5191D116000217F
:104180005E5E644B002E3BDA049D2D2276422A703F
:1041900036E0216813680E0603D5191D11601E68EC
:1041A00004E04806F9D5191D1E881160594B227E7E
:1041B000039308276F2A1ED00A271CE0231C7821AE
:1041C0004533554D197011682368081D039510601B
:1041D0001E0601D50E6802E05806FBD50E88D907E9
:1041E00002D52022134323601027002E03D122681A
:1041F00020239A432260231C002243331A7001E0DB
:1042000003930A276368A360002B03DB256804225D
:1042100095432560002E02D1049D002B0ED0049DF5
:10422000301C391CFCF7B0F90398013D435C301C8D
:104230002B70391CFCF764F9061EF1D1082F09D147
:104240002168C90706D5626823699A4202DC013DEC
:1042500030232B70049E731B23612AE008681368C7
:104260004969050604D5181D10601B68196005E032
:104270004606F8D5181D10601B68198000232361BD
:10428000049D16E01368191D11601D68281C00F0BC
:1042900081FB63682061984200D9236120696060D6
:1042A00004E0251C42352B7001232361049E00236A
:1042B0003370079E05980096211C09AA069BFFF7FC
:1042C000A3FE013002D10120404221E02A1C0598C2
:1042D00006992369079DA8470130F4D02668B607E0
:1042E00005D4099BE068984212DA181C10E00025FA
:1042F000E0680999431A9D42F3DA221C0598069951
:1043000019320123079EB0470130DCD00135EFE7B9
:104310000BB0F0BDED560000FE56000070B5051C58
:104320000E1C141C002804D08269002A01D100F060
:10433000CFF9234B9C4201D16C6808E0214B9C4291
:1043400001D1AC6803E0204B9C4200D1EC68A3692A
:10435000A360A3891A070AD52369002B07D0226816
:104360002369F6B2D01A626990420FDB08E0281C7C
:10437000211C00F02BF80028F1D0012040421DE064
:10438000281C211C00F024F90028F6D1A368013074
:10439000013BA36023685A1C22601E706369984227
:1043A00005D0A389301CDA0708D50A2E06D1281CAF
:1043B000211C00F00DF90028DFD1301C70BDC04673
:1043C000105700003057000050570000344B70B5B4
:1043D0001D68061C0C1C002D05D0A969002902D1FE
:1043E000281C00F075F92F4B9C4201D16C6808E045
:1043F0002D4B9C4201D1AC6803E02C4B9C4200D178
:10440000EC68A28993B2190721D4D90605D40923EF
:10441000336040231A43A2813FE05A0713D5616BF2
:10442000002908D0231C4433994202D0301CFFF7E6
:104430000DFC00236363A38924229343A3810023FB
:10444000636023692360A38908221343A381216940
:1044500000290BD1A389A02292001A4080239B003F
:104460009A4203D0301C211C00F0A2F9A38901223A
:104470001A4005D061690022A2604A42A26103E0AD
:10448000990700D46269A26022690020824206D1A5
:10449000190604D540221343A3810120404270BD78
:1044A00074FEFF1F105700003057000050570000E7
:1044B00008B5062000F002FA012000F03FFBF7B536
:1044C0008B89051C0C1C19075ED46268002A02DC6B
:1044D000276C002F1ADDE76A002F17D000222E6804
:1044E0002A60802252011A4001D0626D15E0281C1A
:1044F000216A0123B847021C411C0ED12B68002BF6
:104500000BD01D2B01D0162B02D12E6000205EE0B7
:10451000A38940210B43A38159E0A3895F0706D5F6
:104520006168636B521A002B01D0276CD21B281CC8
:10453000216A0023E76AB847A289411C06D12B688B
:10454000002B03D01D2B01D0162B19D10023636043
:1045500023692360D70405D5411C02D12A68002AAB
:1045600000D16065616B2E600029CFD0231C4433DD
:10457000994202D0281CFFF769FB0020606326E007
:1045800040231A43A28122E02669002EBED027686C
:104590000022BF1B01972660990700D16269A260C3
:1045A000019F002FB2DD281C216A321C019BA76AE3
:1045B000B847002806DCA389402213430120A381C9
:1045C000404204E0019F36183F1A0197E8E7FEBD1C
:1045D0000A6938B5051C0C1C002A01D100201CE01A
:1045E000002804D08369002B01D100F071F80B4B37
:1045F0009C4201D16C6808E0094B9C4201D1AC6837
:1046000003E0084B9C4200D1EC680C22A35E002B17
:10461000E4D0281C211CFFF752FF38BD10570000C2
:104620003057000050570000F8B5041C071C4834F0
:10463000002C12D0A5686668013E0CD4AB89012B12
:1046400007D90E22AB5E013303D0381C291CFFF7BB
:10465000BFFF6835F0E72468EAE7F8BD002310B52E
:10466000041C03604360836081814366C2810361EF
:1046700043618361191C08225C30FFF7DFFA054BA8
:1046800024626362044BA362044BE362044B236322
:1046900010BDC046FD480000254900005D490000EE
:1046A0008949000070B54B1E68255D430E1C291C0E
:1046B0007431FFF713FB041E08D00021016046602F
:1046C0002A1C0C30A0606832FFF7B8FA201C70BDBD
:1046D000836913B5041C002B27D18364C36403656D
:1046E000124B134A1B688262984201D101238361F5
:1046F000201C00F01FF86060201C00F01BF8A06078
:10470000201C00F017F80421E06000226068FFF729
:10471000A5FFA06809210122FFF7A0FFE068122190
:104720000222FFF79BFF0123A36113BDD8560000AF
:1047300029460000F8B51D4B071C1E68B269002A07
:1047400002D1301CFFF7C4FF4836B4687368013BE0
:1047500005D40C22A55E002D10D06834F7E733682D
:10476000002B06D1381C0421FFF79CFF3060002885
:1047700001D03668E9E70C233B6016E001235B4279
:10478000E381201C0123A38165662560A560656027
:1047900025616561A5615C30291C0822FFF74EFA8E
:1047A0006563A563A564E564201CF8BDD8560000C8
:1047B000F0B58B8991B0051C0C1C9A0725D40E23EB
:1047C000C95E002906DAA78980231F400FD0002781
:1047D00040260EE001AA00F00BF90028F3DB029B53
:1047E000F0273F02184A1F40BF187B425F418026D6
:1047F000F600281C311CFFF771FA00280CD1A389A0
:104800009A051FD402221343A381231C473323603C
:1048100023610123636115E00C4B8022AB62A38905
:1048200020601343A38120616661002F0AD00E230C
:10483000E15E281C00F0EEF8002803D0A3890122D5
:104840001343A38111B0F0BD00E0FFFF2946000033
:10485000C9B28218904204D003788B4202D0013052
:10486000F8E70020704738B5041C0D1E1F2D04D931
:1048700016230360012040421FE0436C002B04D04C
:104880008A009A181368002B08D1201C00F032F817
:104890002A1C011C201C00F01BF80EE0012B0BD081
:1048A000591C03D116230360012006E00024281CB4
:1048B00014609847201C00E0002038BD08B5034B69
:1048C000011C1868FFF7CFFF08BDC04674FEFF1F2C
:1048D00038B5074C0023051C081C111C236000F090
:1048E000F3F8431C03D12368002B00D02B6038BDA4
:1048F0001C00002008B500F0D7F808BD38B50C1C26
:104900000E25495F00F0ACF8002803DB626D131838
:10491000636503E0A289024B1340A38138BDC04602
:10492000FFEFFFFFF8B51E1C8B89051C0C1C171C24
:10493000DA0505D50E23C95E0022022300F07CF8BB
:10494000A289054B281C1340A3810E22A15E331CB3
:104950003A1C00F027F8F8BDFFEFFFFF38B50C1C3C
:104960000E25495F00F068F8A389421C03D1054A6F
:104970001340A38104E0802252011343A3816065A8
:1049800038BDC046FFEFFFFF08B50E23C95E00F03B
:104990001DF808BD0023C25C0133002AFBD1581E5C
:1049A0007047000038B5084C051C00202060081C2A
:1049B000111C1A1C00F0BAF8431C03D12368002B09
:1049C00000D02B6038BDC0461C00002038B5074C15
:1049D0000023051C081C236000F056F8431C03D17B
:1049E0002368002B00D02B6038BDC0461C0000207F
:1049F00038B5074C0023051C081C111C236000F06F
:104A00004BF8431C03D12368002B00D02B6038BD2A
:104A10001C00002038B5074C0023051C081C23602F
:104A200000F04AF8431C03D12368002B00D02B6010
:104A300038BDC0461C00002038B5084C051C0020BD
:104A40002060081C111C1A1C00F046F8431C03D1FE
:104A50002368002B00D02B6038BDC0461C0000200E
:104A600038B5084C051C00202060081C111C1A1CBD
:104A700000F03AF8431C03D12368002B00D02B60D0
:104A800038BDC0461C000020024B58220120404285
:104A90001A6070471C000020024B5822012040423F
:104AA0001A6070471C000020024B5822012040422F
:104AB0001A6070471C000020024B582200201A6028
:104AC0007047C0461C000020024B58220120404283
:104AD0001A6070471C000020024B582201204042FF
:104AE0001A6070471C000020024B582201204042EF
:104AF0001A6070471C000020094A1368002B0CD074
:104B000018186946884202D81060181C7047054B77
:104B10000C2201201A604042F8E7034B1360EFE7D4
:104B20004CFFFF1F1C00002020000020024B5822D9
:104B3000012040421A6070471C000020FEE7C0467A
:104B4000443A2F467265657363616C652F776F72A7
:104B50006B73706163652F7861646F775F70686FE6
:104B60006E655F6770735F76322F53444B2F706CA6
:104B70006174666F726D2F68616C2F696E632F664A
:104B8000736C5F6770696F5F68616C2E680000000E
:104B900070696E203C20333200000000443A2F46FA
:104BA0007265657363616C652F776F726B7370618B
:104BB00063652F7861646F775F70686F6E655F679C
:104BC00070735F76322F53444B2F706C6174666F35
:104BD000726D2F68616C2F696E632F66736C5F70E6
:104BE0006F72745F68616C2E6800000070696E20DF
:104BF0003C20333255000000443A2F4672656573FD
:104C000063616C652F776F726B73706163652F786A
:104C100061646F775F70686F6E655F6770735F76F2
:104C2000322F53444B2F706C6174666F726D2F6816
:104C3000616C2F696E632F66736C5F706F72745F47
:104C400068616C2E6800000070696E203C20333271
:104C500055000000443A2F467265657363616C65C8
:104C60002F776F726B73706163652F7861646F77F4
:104C70005F70686F6E655F6770735F76322F534445
:104C80004B2F706C6174666F726D2F68616C2F6949
:104C90006E632F66736C5F6770696F5F68616C2EFF
:104CA0006800000070696E203C2033320000000074
:104CB0002E2E2F53444B2F706C6174666F726D2FC4
:104CC00073797374656D2F7372632F636C6F636B8D
:104CD0002F4D4B4C30325A342F66736C5F636C6FC0
:104CE000636B5F4D4B4C30325A342E630000000032
:104CF0004E554C4C20213D20636F6E666967000065
:104D0000696E7374616E6365203C2073697A656FA8
:104D10006628706F7274476174655461626C6529AE
:104D20002F73697A656F6628706F72744761746556
:104D30005461626C655B305D29000000696E7374BC
:104D4000616E6365203C2073697A656F66286164D3
:104D500063476174655461626C65292F73697A6574
:104D60006F6628616463476174655461626C655B5A
:104D7000305D2900696E7374616E6365203C207339
:104D8000697A656F662873706947617465546162FA
:104D90006C65292F73697A656F662873706947613E
:104DA00074655461626C655B305D2900696E737473
:104DB000616E6365203C2073697A656F662869328D
:104DC00063476174655461626C65292F73697A6504
:104DD0006F6628693263476174655461626C655B14
:104DE000305D2900696E7374616E6365203C2073C9
:104DF000697A656F66286C7073636947617465547E
:104E000061626C65292F73697A656F66286C7073AF
:104E10006369476174655461626C655B305D29004C
:104E2000696E7374616E6365203C2073697A656F87
:104E3000662874706D476174655461626C65292FD2
:104E400073697A656F662874706D47617465546123
:104E5000626C655B305D29002E2E2F53444B2F7002
:104E60006C6174666F726D2F6F73612F7372632F35
:104E700066736C5F6F735F61627374726163746990
:104E80006F6E5F626D2E63007053656D00000000F1
:104E9000704D757465780000704576656E7400001D
:104EA000736574466C6167730000000068616E642E
:104EB0006C65720071756575650000002E2E2F53AC
:104EC000444B2F706C6174666F726D2F68616C2F2C
:104ED0007372632F6932632F66736C5F6932635F2D
:104EE00068616C2E630000004932435F4252445FA8
:104EF00043315F4D5354286261736529203D3D2045
:104F0000310000002E2E2F53444B2F706C617466BD
:104F10006F726D2F68616C2F7372632F6770696F8A
:104F20002F66736C5F6770696F5F68616C2E6300DA
:104F300070696E203C20333200000000443A2F4656
:104F40007265657363616C652F776F726B737061E7
:104F500063652F7861646F775F70686F6E655F67F8
:104F600070735F76322F53444B2F706C6174666F91
:104F7000726D2F73797374656D2F696E632F66730D
:104F80006C5F696E746572727570745F6D616E616D
:104F90006765722E6800000030203C3D2069727108
:104FA0004E756D62657200006972714E756D626555
:104FB00072203C3D2046534C5F4645415455524576
:104FC0005F494E544552525550545F4952515F4DBE
:104FD000415800002E2E2F53444B2F706C61746685
:104FE0006F726D2F647269766572732F7372632F9F
:104FF0006932632F66736C5F6932635F6D617374CE
:1050000065725F6472697665722E63006D61737498
:1050100065720000696E7374616E6365203C20499F
:1050200032435F494E5354414E43455F434F554EC3
:105030005400000064657669636500007478427509
:105040006666000072784275666600002E2E2F5349
:10505000444B2F706C6174666F726D2F6472697649
:105060006572732F7372632F6932632F66736C5F7F
:105070006932635F7368617265645F66756E6374DD
:10508000696F6E2E63000000696E7374616E6365F4
:10509000203C204932435F494E5354414E43455FC3
:1050A000434F554E54000000443A2F4672656573D5
:1050B00063616C652F776F726B73706163652F78B6
:1050C00061646F775F70686F6E655F6770735F763E
:1050D000322F53444B2F706C6174666F726D2F7357
:1050E000797374656D2F696E632F66736C5F696E7B
:1050F000746572727570745F6D616E616765722E32
:105100006800000030203C3D206972714E756D6270
:10511000657200006972714E756D626572203C3D6A
:105120002046534C5F464541545552455F494E54C5
:105130004552525550545F4952515F4D41580000FD
:105140002E2E2F53444B2F706C6174666F726D2F2F
:10515000647269766572732F7372632F6932632F7D
:1051600066736C5F6932635F736C6176655F6472EE
:10517000697665722E630000736C617665000000CD
:10518000696E7374616E6365203C204932435F49E8
:105190004E5354414E43455F434F554E540000001B
:1051A0007278427566660000747842756666000023
:1051B0002E2E2F47656E6572617465645F436F6460
:1051C000652F6F7361312E6300000000646976699A
:1051D00064657220213D203055000000443A2F467E
:1051E0007265657363616C652F776F726B73706145
:1051F00063652F7861646F775F70686F6E655F6756
:1052000070735F76322F53444B2F706C6174666FEE
:10521000726D2F68616C2F696E632F66736C5F709F
:105220006F72745F68616C2E6800000070696E2098
:105230003C203332550000004750494F5F48414CF5
:105240005F53657450696E4F75747075740000001B
:10525000C411000048120000521200006212000047
:105260006C1200007C1200008612000096120000F2
:10527000AC120000D8110000E6110000D8110000A7
:1052800006120000D811000026120000BE12000015
:10529000CC120000BE120000EC120000BE12000092
:1052A0000C130000CC130000D6130000E013000024
:1052B000E0130000E0130000E0130000E013000022
:1052C000E0130000E0130000E0130000E013000012
:1052D000E0130000E0130000E013000026140000BB
:1052E0003614000046140000C0150000C61400006B
:1052F000D814000016150000C0150000C0150000ED
:105300007815000016150000C0150000C01500003B
:105310007815000016150000C0150000C01500002B
:105320007815000016150000C0150000C01500001B
:10533000781500008C180000B018000068180000F4
:10534000D418000068180000E61800006818000073
:105350009E1800009E180000681800007A180000CF
:10536000C2180000681800006818000068180000E3
:105370004C19000068190000841900009A190000F7
:10538000B6190000CC190000E8190000FE19000051
:105390001A1A0000361A00004C1A00006A1A00009F
:1053A000861A00009C1A0000B21A0000D01A0000F1
:1053B000D01A0000D01A0000D01A0000D01A000045
:1053C000D01A0000D01A0000D01A0000D01A000035
:1053D000D01A0000D01A0000D01A0000D01A000025
:1053E000D01A0000D01A0000D01A0000D01A000015
:1053F000D01A0000D01A0000D01A0000D01A000005
:10540000D01A0000D01A0000D01A0000D01A0000F4
:10541000D01A0000D01A0000D01A0000D01A0000E4
:10542000D01A0000D01A0000D01A0000D01A0000D4
:10543000D01A0000D01A0000D01A0000D01A0000C4
:10544000D01A0000D01A0000D01A0000D01A0000B4
:10545000D01A0000D01A0000D01A0000D01A0000A4
:10546000D01A0000D01A0000D01A0000D01A000094
:10547000D01A0000D01A0000D01A0000D01A000084
:10548000D01A0000D01A0000D01A0000D01A000074
:10549000D01A0000D01A0000D01A0000D01A000064
:1054A000D01A0000D01A0000D01A0000D01A000054
:1054B000D01A0000D01A0000D01A0000D01A000044
:1054C000C81A0000504F52545F48414C5F536574F6
:1054D0004D75784D6F646500504F52545F48414C94
:1054E0005F5365744D75784D6F6465004750494F43
:1054F0005F48414C5F5265616450696E496E7075DA
:10550000740000004750494F5F48414C5F436C6551
:10551000617250696E4F7574707574004750494FD1
:105520005F48414C5F53657450696E4F7574707578
:105530007400000066670000434C4F434B5F5359B3
:10554000535F456E61626C65493263436C6F636B98
:1055500000000000434C4F434B5F5359535F456E6F
:1055600061626C654C70736369436C6F636B0000C0
:10557000005006404F53415F53656D61506F737427
:10558000000000004F53415F4576656E74437265BD
:10559000617465004F53415F4576656E7453657461
:1055A000000000008002DC020005B80580079508B5
:1055B000000A710B4932435F48414C5F53656E648A
:1055C00053746F70000000004750494F5F48414CD2
:1055D0005F53657450696E44697200000060064054
:1055E00000700640080900004932435F4452565F8C
:1055F0004D617374657249525148616E646C657295
:10560000000000004932435F4452565F436F6D70A3
:105610006C6574655472616E73666572000000009B
:105620004932435F4452565F49525148616E646C3F
:10563000657200004932435F4452565F536C617695
:1056400065496E6974000000494E545F5359535FB9
:10565000456E61626C654952510000004932435FFA
:105660004452565F536C61766549525148616E648D
:105670006C6572004F53415F54696D65496E697482
:1056800000000000504F52545F48414C5F53657416
:105690004D75784D6F6465002C2066756E63746976
:1056A0006F6E3A2000617373657274696F6E2022A9
:1056B000257322206661696C65643A2066696C65B1
:1056C00020222573222C206C696E652025642573A9
:1056D00025730A004300000014FEFF1F232D302B0A
:1056E0002000686C4C0065666745464700303132E3
:1056F000333435363738394142434445460030313A
:105700003233343536373839616263646566000098
:105710000000000000000000000000000000000089
:105720000000000000000000000000000000000079
:105730000000000000000000000000000000000069
:105740000000000000000000000000000000000059
:105750000000000000000000000000000000000049
:105760000000000000000000000000000000000039
:10577000F8B5C046F8BC08BC9E467047F8B5C046B0
:08578000F8BC08BC9E4670470E
:08578800E8ACFF7F0100000006
:0457900039040000D8
:0457940011040000FC
:105798002447507878782C000000000500093D0067
:1057A8000080000000000000105700003057000083
:1057B800505700000000000000000000000000003A
:1057C80000000000D45600000000000000000000A7
:1057D80000000000000000000000000000000000C1
:1057E80000000000000000000000000000000000B1
:1057F80000000000000000000000000000000000A1
:0C5808000000000014FEFF1F0000000064
:04000003000004E90C
:00000001FF
